:100000000C9434000C9451000C9451000C94510049
:100010000C9451000C9451000C9451000C9451001C
:100020000C9451000C9451000C9451000C9451000C
:100030000C9451000C9451000C941C030C9451002E
:100040000C9451000C9451000C9451000C945100EC
:100050000C9451000C9451000C9451000C945100DC
:100060000C9451000C94510011241FBECFEFD8E026
:10007000DEBFCDBF12E0A0E0B1E0E8E4FCE102C0E9
:1000800005900D92A830B107D9F723E0A8E0B2E0BF
:1000900001C01D92A732B207E1F70E94440C0C94F4
:1000A000220E0C9400008091090290910A020A9796
:1000B00074F4E4E2D081D062D083E5E2D081D062F2
:1000C000D0838091090290910A020A9794F3E4E2A6
:1000D000D081D062D083E5E2D081DF7DD083E3CFD1
:1000E00067E1F62E0E94B6058111FBC086E093E021
:1000F0000E94070C60E080E00E9440088BE10E94B3
:10010000C5058BE50E94C50561E270E080E090E0E6
:100110000E94D1058DE60E94C50586E091E00E940F
:1001200063068091320290913302A0913402B09123
:1001300035020E9497060E94200688E191E00E9405
:10014000630680913602909137020E9497060E94C2
:1001500020068CE291E00E9463068091F00290E01C
:100160000E9497060E9420068091F002882309F4DD
:10017000AFC000E010E06AC08F8198852B853C8578
:10018000821B930B0E9497060E9420068DE691E049
:100190000E946306FC9CE001FD9CD00D1124CE5C06
:1001A000DD4F8F859889A989BA890E9497060E9498
:1001B00020068CE791E00E9463068B859C850E9457
:1001C00068070E9420068BE891E00E9463068F81F9
:1001D00098850E9468070E9420068AE991E00E94A3
:1001E000630689859A850E9468070E94200689EA2D
:1001F00091E00E946306698D7A8D209132023091E0
:100200003302409134025091350280E090E00E9428
:10021000930CC9010E9497060E94200688EB91E08A
:100220000E9463062B8D8C8D90E0982F8827820F7B
:10023000911D880F991F0E9468070E9420061F5F6A
:100240008091F002075E181708F042C0602F85E029
:100250000E9440088BE10E94C5058BE50E94C50500
:1002600060E270E080E090E00E94D1058DE60E949F
:10027000C50580E491E00E946306C12ED12CFC9C50
:10028000E001FD9CD00D1124CE5CDD4F8E8190E00D
:100290000E9497060E9420068FE491E00E94630668
:1002A0008B899C89880F991F0E9468070E942006ED
:1002B0008EE591E00E946306112309F45DCF8985E4
:1002C0009A852B853C85821B930B0E9497065CCFF9
:1002D00086E093E00E940A0A0E94B605882309F48A
:1002E00005CF0E94BC058B3639F1C0F08D3679F10F
:1002F0008A3709F0FBCE8091180290911902853659
:10030000910508F4F3CE8091180290911902845659
:1003100091099093190280931802E8CE813609F072
:10032000E5CE80911802909119028C599F4F9093BD
:10033000190280931802DACE80910403909105038C
:100340008C599F4F9093050380930403CFCE8091E7
:100350000403909105038536910508F4C7CE80917A
:1003600004039091050384569109909305038093AB
:100370000403BCCE86E093E00E94070C6EE180E0AF
:100380000E9440088BE10E94C5058BE50E94C505CF
:100390006FE170E080E090E00E94D1058DE60E9460
:1003A000C50587EC91E00E94630680911802909148
:1003B00019020E9497060E94200687EE91E00E9493
:1003C000630680910403909105030E9497060E94A2
:1003D00020068CE70E94C505C0E0D0E007C0808100
:1003E0000E94C5052196CA30D10569F0FE01E85D7D
:1003F000FD4F80818111F3CF80E20E94C5052196D7
:10040000CA30D10599F78CE70E94C50586E093E0D4
:100410000E940A0AAFCF18E5CAE0D0E02091180286
:1004200030911902ADECBCEC0E94B50C9695879505
:1004300096958795969587950E94340585E193E07A
:100440000E942E0C8AE192E00E942E0CE09108029C
:10045000F0E0E85DFD4F10838AE192E00E94F60A29
:1004600089E092E00E94F60A8091080290E00196ED
:10047000BE010E947F0C80930802D0CFCAE0D0E07A
:1004800089E092E00E942E0C8AE192E00E942E0CFC
:10049000E0911702F0E0E85DFD4F8081E0911702E6
:1004A000F0E0E85DFD4F10828AE192E00E94F60ADA
:1004B00085E193E00E94F60A8091170290E0019690
:1004C000BE010E947F0C809317022091040330919B
:1004D0000503ADECBCEC0E94B50C969587959695FE
:1004E0008795969587950E943405CACFE4E2D0811E
:1004F000D062D083E5E2D081D062D0830895E4E277
:10050000D081D062D083E5E2D081DF7DD0830895B1
:100510008AE0E8E2F2E0DF011D928A95E9F788EED1
:1005200093E09093050380930403909319028093C2
:100530001802109208021092170208957894842DE0
:10054000952DE22DF32D0994CF938091F1026091C6
:10055000F00290E0019670E00E947F0C9C0133272E
:1005600047E1429FF001439FF00D1124EE5CFD4FE7
:100570004589568941305105B1F0C7E16091F002DB
:10058000C901019670E00E947F0C9C013327C29F35
:10059000F001C39FF00D1124EE5CFD4F4589568993
:1005A0004130510559F7CF910895EEE6F0E0808192
:1005B0008260808384B5826084BD85B5856085BD99
:1005C0008CE987BD08952F923F924F925F926F9270
:1005D0007F928F929F92AF92BF92CF92DF92EF92D3
:1005E000FF920F931F93CF93DF93FF27EDE50081D9
:1005F000FF27EEE51081E62FF72F01931083E82FF8
:10060000F92F01911081FF27EDE50083FF27EEE52B
:100610001083DF91CF911F910F91FF90EF90DF90AA
:10062000CF90BF90AF909F908F907F906F905F9092
:100630004F903F902F9008951F920F920FB60F92F8
:1006400011240F931F932F933F934F935F936F93B7
:100650007F938F939F93AF93BF93EF93FF93CF932A
:10066000DF9300D0CDB7DEB78091F1028A8360912D
:10067000F2027091F3028091F4029091F50224E667
:1006800030E040E050E00E94930C2093320230931F
:10069000330240933402509335026091F20270911C
:1006A000F3028091F4029091F5028B019C010F5F9F
:1006B0001F4F2F4F3F4F0093F2021093F3022093EE
:1006C000F4023093F50220913202309133024091CE
:1006D0003402509135020E94930C309337022093DC
:1006E0003602AA8187E18A9FD0011124AE5CBD4FFA
:1006F0001B96ED91FC911C977A96AA8191898A9F0D
:10070000D0011124AE5CBD4F5B969C932A819089E9
:10071000829FF0011124EE5CFD4F948F1982898134
:10072000883008F03FC047E121E030E006C0898111
:100730008F5F898389818830A8F5E9814E9FF00118
:100740001124EE5CFD4F85899689029781F7898196
:1007500090E00196489FF001499FF00D1124EE5C56
:10076000FD4F80819181019791838083898190E001
:100770000196489FF001499FF00D1124EE5CFD4F5A
:1007800080819181892B99F6E9814E9FF001112496
:10079000EE5CFD4F368B258B89818F5F8983898144
:1007A000883058F2EA8147E14E9FF0011124EE5C57
:1007B000FD4F81E090E0968B858B8091F1026091F6
:1007C000F00290E0019670E00E947F0C9C013327BC
:1007D000429FF001439FF00D1124EE5CFD4F4589CF
:1007E000568941305105B1F017E16091F002C9011D
:1007F000019670E00E947F0C9C013327129FF0014C
:10080000139FF00D1124EE5CFD4F45895689413050
:10081000510559F78093F102E091F10287E18E9F33
:10082000F0011124EE5CFD4F168A158AE091F10269
:100830008E9FF0011124EE5CFD4F218D328D2F5FD4
:100840003F4F328F218F6A819091F102869FB001D4
:100850001124635C7D4F899FC0011124835C9D4FEF
:100860000E94E3020F900F90DF91CF91FF91EF91E3
:10087000BF91AF919F918F917F916F915F914F91B8
:100880003F912F911F910F910F900FBE0F901F90CE
:100890001895EEE6F0E080818260808384B5826006
:1008A00084BD85B5856085BD8CE987BD0E94E9085A
:1008B000109238028FEF98E090933A0280933902B9
:1008C00010923C0210923B021092400210923F02A2
:1008D00084E49CE090934602809345021092480283
:1008E0001092470210924A021092490210924C0252
:1008F00010924B0210924D0210924E026DE372E084
:10090000CB010E94E3028FEF97E0A0E0B0E080937C
:10091000410290934202A0934302B093440208958F
:100920001092320210923302109234021092350269
:10093000109237021092360281E08093F0021092FA
:10094000F2021092F3021092F4021092F502109249
:10095000F10208959F92AF92BF92CF92DF92EF92F1
:10096000FF920F931F93CF93DF938C017B015A016A
:100970002091F00281E0820F8093F002C22ED12CF0
:10098000CA01895B9F4FA0E0B0E037E1932E9C9CA9
:10099000E0019D9CD00D1124CE5CDD4F8F87988B9C
:1009A000A98BBA8B2E836F85788989899A8981E092
:1009B00090E00E94D80C98878F83BE86AD861C8BF2
:1009C0000B8BC6010196989EF001999EF00D1124A3
:1009D000EE5CFD4F118210821A8E198E1B8E1C8EBA
:1009E0008F8198854F85588969897A89840F951FE9
:1009F0009A878987E985FA8531978EE992E0808325
:100A0000E985FA8532979083E985FA8533970083E3
:100A1000E985FA8534971083E114F10441F0E98502
:100A2000FA853597E082E985FA853697F08287E185
:100A30008C9DF0018D9DF00D1124EE5CFD4F8185A4
:100A4000928545979487838781E090E0968B858B8C
:100A5000DF91CF911F910F91FF90EF90DF90CF909A
:100A6000BF90AF909F9008951F93CF93DF93C09155
:100A7000F102D0E047E14C9FF0014D9FF00D1124B1
:100A8000EE5CFD4FA385B48554962C915497238F2B
:100A900053962C91248F22E030E0368B258B9E01DB
:100AA0002F5F3F4F429FF001439FF00D1124EE5CFA
:100AB000FD4F918380838091F1026091F00290E07C
:100AC000019670E00E947F0C9C013327429FF00149
:100AD000439FF00D1124EE5CFD4F4589568941304E
:100AE0005105B1F017E16091F002C901019670E083
:100AF0000E947F0C9C013327129FF001139FF00D81
:100B00001124EE5CFD4F458956894130510559F756
:100B10008093F102E091F10287E18E9FF0011124B0
:100B2000EE5CFD4F168A158A9091F1028C9FB00100
:100B30008D9F700D1124635C7D4F899FC00111242E
:100B4000835C9D4F0E94E302DF91CF911F91089536
:100B500082E08093C0001092C50080E18093C400C1
:100B6000E1ECF0E080818861808308958091C0008D
:100B7000881F8827881F08958091C00087FD02C0C4
:100B80008FEF08958091C60008959091C10095FD62
:100B9000FCCF9091C00095FFF8CF8093C60081E014
:100BA0000895CF92DF92EF92FF921F93CF93DF933E
:100BB000CDB7DEB72A970FB6F894DEBF0FBECDBF14
:100BC0001AE02AE0C22ED12CE12CF12C1150A70101
:100BD00096010E94930CA0E3A60FE1E0F0E0EC0F79
:100BE000FD1FE10FF11DA083B901CA016115710557
:100BF0008105910559F71A30A8F41F5F8091C10053
:100C000085FDFCCF8091C00085FFF8CFA093C60082
:100C10001A3041F0E1E0F0E0EC0FFD1FE10FF11DB3
:100C2000A081EBCF2A960FB6F894DEBF0FBECDBFE2
:100C3000DF91CF911F91FF90EF90DF90CF900895BB
:100C40008091C10085FDFCCF8091C00085FFF8CF69
:100C50008BE18093C6008091C10085FDFCCF80911F
:100C6000C00085FFF8CF8BE58093C6008091C1005E
:100C700085FDFCCF8091C00085FFF8CF85E780938C
:100C8000C6008091C10085FDFCCF8091C00085FF2A
:100C9000F8CF8BE18093C6008091C10085FDFCCF29
:100CA0008091C00085FFF8CF8BE58093C6008091CE
:100CB000C10085FDFCCF8091C00085FFF8CF82E4A4
:100CC0008093C60008952091C10025FDFCCF20919E
:100CD000C00025FFF8CF2BE12093C6002091C10072
:100CE00025FDFCCF2091C00025FFF8CF2BE52093F8
:100CF000C6002091C10025FDFCCF2091C00025FF3A
:100D0000F8CF23E72093C600FC012081222371F055
:100D100031968091C10085FDFCCF8091C00085FF98
:100D2000F8CF2093C60021912111F3CF0895FF92AF
:100D30000F931F93CF93DF9300D000D01F92CDB7B6
:100D4000DEB7AC018E010F5F1F4F85E0F8011192F5
:100D50008A95E9F7B5E0FB2EFA94F801EF0DF11D45
:100D60009A01ADECBCEC0E94B50C969587959695D2
:100D70008795969587959C01220F331FBC01660FBE
:100D8000771F660F771F660F771F260F371F421BCF
:100D9000530B405D4083AC010097F1F6F801CE01A2
:100DA000069640E3319131111CC02091C10025FD10
:100DB000FCCF2091C00025FFF8CF4093C600E81774
:100DC000F90781F70F900F900F900F900F90DF9120
:100DD000CF911F910F91FF9008952091C00025FDA4
:100DE00009C02091C10025FFF8CF2091C10025FD49
:100DF000F8CFF3CF3093C600E2CF8F929F92AF929D
:100E0000BF92DF92EF92FF920F931F93CF93DF93E6
:100E1000CDB7DEB72A970FB6F894DEBF0FBECDBFB1
:100E20009E012F5F3F4F79012AE0F70111922A9529
:100E3000E9F71AE0D12E0AE0802E912CA12CB12CDA
:100E4000DA9487010D0D111DA50194010E94930CE8
:100E5000605DF8016083B901CA0161157105810502
:100E6000910571F7F701CE010B9640E331913111F5
:100E700023C02091C10025FDFCCF2091C00025FF9B
:100E8000F8CF4093C600E817F90781F72A960FB606
:100E9000F894DEBF0FBECDBFDF91CF911F910F91B0
:100EA000FF90EF90DF90BF90AF909F908F9008954C
:100EB0002091C00025FD09C02091C10025FFF8CF79
:100EC0002091C10025FDF8CFF3CF3093C600DBCFD2
:100ED000CF93DF9300D000D0CDB7DEB719821A824E
:100EE0001B821C8243E00BC0295C20839295829573
:100EF0008F7089279F7089274150009799F09C0136
:100F00002F703327E1E0F0E0EC0FFD1FE40FF11D3F
:100F10002A30310548F7205D2083E8CF8091C0005A
:100F200085FD09C08091C10085FFF8CF8091C10087
:100F300085FDF8CFF3CF80E38093C6008091C10098
:100F400085FDFCCF8091C00085FFF8CF88E78093B6
:100F5000C600FE013196CE01059640E33191311174
:100F600018C02091C10025FDFCCF2091C00025FFB5
:100F7000F8CF4093C600E817F90781F70F900F905C
:100F80000F900F90DF91CF9108952091C00025FD23
:100F900009C02091C10025FFF8CF2091C10025FD97
:100FA000F8CFF3CF3093C600E6CFCF93DF93CDB722
:100FB000DEB72A970FB6F894DEBF0FBECDBFA9E00B
:100FC00011C0495C408344E0969587957795679575
:100FD0004A95D1F74FEF4A0F6115710581059105CB
:100FE000B1F0A42FAB014F7055272A2F30E0E1E07C
:100FF000F0E0EC0FFD1FE20FF31F4A30510508F738
:10100000405D4083E0CF8091C00085FD09C08091A4
:10101000C10085FFF8CF8091C10085FDF8CFF3CFE7
:1010200080E38093C6008091C10085FDFCCF809154
:10103000C00085FFF8CF88E78093C600AA30B8F4D7
:10104000AF5FE1E0F0E0EC0FFD1FE20FF31F9081D6
:101050008091C10085FDFCCF8091C00085FFF8CF55
:101060009093C600AA3019F02A2F30E0E9CF2A96D3
:101070000FB6F894DEBF0FBECDBFDF91CF910895BC
:10108000CF93DF93CDB7DEB72A970FB6F894DEBFC4
:101090000FBECDBF9091C10095FDFCCF9091C000D7
:1010A00095FFF8CF9BE19093C6009091C10095FD0C
:1010B000FCCF9091C00095FFF8CF9BE59093C600C0
:1010C0009AE04DEC9150849F212D11242695269570
:1010D0002695382F5AE0259F30191124305DE1E024
:1010E000F0E0EC0FFD1FE90FF11D3083822F21117D
:1010F000E9CF9A30C8F49F5F8091C10085FDFCCF95
:101100008091C00085FFF8CF3093C6009A3061F01F
:10111000E1E0F0E0EC0FFD1FE90FF11D3081EBCFB6
:101120008091C00085FD09C08091C10085FFF8CF86
:101130008091C10085FDF8CFF3CF8BE38093C6008B
:101140009AE03DEC9150639F812D11248695869500
:101150008695262F4AE0849F20191124205DE1E026
:10116000F0E0EC0FFD1FE90FF11D2083682F8111C6
:10117000E9CF9A30C8F49F5F8091C10085FDFCCF14
:101180008091C00085FFF8CF2093C6009A3061F0AF
:10119000E1E0F0E0EC0FFD1FE90FF11D2081EBCF46
:1011A0008091C00085FD09C08091C10085FFF8CF06
:1011B0008091C10085FDF8CFF3CF88E48093C6000D
:1011C0002A960FB6F894DEBF0FBECDBFDF91CF9148
:1011D00008958091C10085FDFCCF8091C00085FFFE
:1011E000F8CF8BE18093C6008091C10085FDFCCFD4
:1011F0008091C00085FFF8CF8BE58093C600809179
:10120000C10085FDFCCF8091C00085FFF8CF82E34F
:101210008093C6008091C10085FDFCCF8091C00005
:1012200085FFF8CF8AE48093C6008091C10085FDD8
:10123000FCCF8091C00085FFF8CF8BE18093C60082
:101240008091C10085FDFCCF8091C00085FFF8CF63
:101250008BE58093C6008091C10085FDFCCF809115
:10126000C00085FFF8CF88E48093C6000895FC0194
:1012700082859385892B21F4848595850797D9F0FC
:10128000848595852285338501968217930799F089
:1012900084859585019681F0848595850196877072
:1012A000907897FD0EC095878487A485B585AE0F8D
:1012B000BF1F12966C9308951586148613861286A6
:1012C000F4CF0197886F9F6F0196EDCFFC01828567
:1012D00093850196C1F0A285B385AE0FBF1F12960C
:1012E0008C9142855385248535854217530769F0D3
:1012F000228533852F5F3F4F2770307837FD0CC034
:1013000033872287089580E008952FEF3FEF3587D8
:10131000248733872287089521503109286F3F6F32
:101320002F5F3F4F338722870895FC018385948583
:10133000892B21F4858596850797D9F08585968533
:101340002385348501968217930799F085859685C4
:10135000019681F08585968501968770907897FD36
:101360000EC096878587A585B685AE0FBF1F1296DE
:101370006C9308951686158614861386F4CF01970C
:10138000886F9F6F0196EDCFFC0183859485019650
:10139000C1F0A385B485AE0FBF1F12968C91438513
:1013A0005485258536854217530769F02385348592
:1013B0002F5F3F4F2770307837FD0CC0348723876D
:1013C000089580E008952FEF3FEF36872587348713
:1013D0002387089521503109286F3F6F2F5F3F4FBA
:1013E000348723870895CF93DF93FC018FEF9FEF1E
:1013F000DF0111969C938E93129628E0ED011992CD
:101400002A95E9F712869487838796878587DF91E7
:10141000CF910895CF93DF93FC01F894A091F1024E
:10142000208131818091F10290E02817390721F065
:101430007894DF91CF9108958285882309F46BC059
:101440004A2F50E027E1A29FD0011124AE5CBD4F8E
:101450001B96CD91DC911C978C895B968C935B9746
:101460008B895C968C935C9781E090E056969C9378
:101470008E93559783859485019609F45BC0A38567
:10148000B485AE0FBF1F12966C9123853485858578
:1014900096852817390709F446C0838594850196F7
:1014A0008770907897FD48C0948783876093F10296
:1014B0008285815082878091F10290E091838083C0
:1014C000E091F10287E18E9FF0011124EE5CFD4F67
:1014D000168A158AE091F1028E9FF0011124EE5CCC
:1014E000FD4F218D328D2F5F3F4F328F218F909195
:1014F000F102849FB001859F700D1124635C7D4FC4
:10150000899FC0011124835C9D4F0E94E30278945F
:10151000DF91CF9108958FEF9FEF9183808378942F
:10152000DF91CF9108958FEF9FEF968785879487FE
:101530008387BCCF60E0BACF0197886F9F6F019619
:10154000B3CF772767FD7095FC0171836083329676
:1015500048E0DF01242F1D922A95E9F72FEF3FEF96
:10156000DC011B963C932E931A971D963C932E9369
:101570001C9781E090E090931B0280931A02ECE1AB
:10158000F2E0DF01842F1D928A95E9F7309325025E
:1015900020932402309327022093260210920A02FD
:1015A00010920902EBE0F2E0DF01842F1D928A9590
:1015B000E9F730931402209313023093160220931C
:1015C00015028AE090E09093160380931503E7E1FB
:1015D000F3E0DF011D924A95E9F730932003209351
:1015E0001F0330932203209321030895FC01F894F4
:1015F00080819181019691838083808191811816E9
:10160000190614F47894089582859385019679F1EA
:10161000A285B385AE0FBF1F12966C91428553858C
:101620002485358542175307C9F082859385019635
:101630008770907897FD1EC093878287862F90E0F1
:1016400027E1289FF001299FF00D1124EE5CFD4F4A
:1016500081E090E0968B858B789408952FEF3FEF93
:101660003587248733872287862F90E0E9CF80E073
:1016700090E0E6CF0197886F9F6F0196DDCFCF9303
:10168000DF93FC01F894A091F10280819181019691
:1016900091838083808191811816190624F47894AF
:1016A000DF91CF9108954A2F50E027E1A29FD0010A
:1016B0001124AE5CBD4F1B96CD91DC911C978C899B
:1016C0005B968C935B978B895C968C935C9781E09F
:1016D00090E056969C938E935597828593850196BC
:1016E00009F44AC0A285B385AE0FBF1F12966C9154
:1016F000228533858485958528173907B1F1828540
:10170000938501968770907897FD38C0938782877C
:101710006093F102E091F10287E18E9FF0011124C4
:10172000EE5CFD4F168A158AE091F1028E9FF00162
:101730001124EE5CFD4F218D328D2F5F3F4F328F94
:10174000218F9091F102849FB001859F700D11242B
:10175000635C7D4F899FC0011124835C9D4F0E9473
:10176000E3027894DF91CF9108958FEF9FEF9587F3
:10177000848793878287CCCF60E0CACF0197886F38
:101780009F6F0196C3CFFF920F931F93CF93DF9369
:10179000C1EFD2E0088187E1F82EF09E800111248C
:1017A000F801EE5CFD4FA385B48554968C91549757
:1017B000838F53968C91848F23E030E0368B258B7A
:1017C0000E94A4028883E881FE9EF0011124EE5C51
:1017D000FD4F168A158AE881FE9EF0011124EE5C09
:1017E000FD4F218D328D2F5F3F4F328F218F8881AA
:1017F000B801635C7D4FF89EC0011124835C9D4F4E
:10180000DF91CF911F910F91FF900C94E302CF9342
:10181000DF93EC01F894888199810196B1F02881D9
:1018200039818091F10290E02817390751F06091D9
:10183000F102CE010E9495098A858F5F8A870E94F6
:10184000C30B7894DF91CF9108958091F10290E0DD
:10185000998388837894DF91CF910895FC01F8945F
:10186000808191810197918380838081918197FD0F
:1018700002C0789408956091F102CF010E94370967
:101880000E94C30B789408950E94A8050E949004BA
:1018900086E093E00E94F30961E086EF92E00E9407
:1018A000A10A0E94880240E250E060E070E08BE014
:1018B00092E00E94AA0440E250E060E070E08EE313
:1018C00092E00E94AA0440E250E060E070E080E70D
:1018D00090E00E94AA0440E250E060E070E08AEBF1
:1018E00091E00E94AA0440E250E060E070E083E5ED
:1018F00090E00E94AA040E9449047894FFCF97FBCD
:10190000072E16F4009407D077FD09D00E94C40C6E
:1019100007FC05D03EF4909581959F4F08957095F2
:1019200061957F4F0895A1E21A2EAA1BBB1BFD01F2
:101930000DC0AA1FBB1FEE1FFF1FA217B307E407AE
:10194000F50720F0A21BB30BE40BF50B661F771F06
:10195000881F991F1A9469F76095709580959095E6
:101960009B01AC01BD01CF010895A29FB001B39FBF
:10197000C001A39F700D811D1124911DB29F700D98
:10198000811D1124911D0895AA1BBB1B51E107C0A5
:10199000AA1FBB1FA617B70710F0A61BB70B881FFF
:1019A000991F5A95A9F780959095BC01CD0108958E
:1019B0000F931F93CF93DF93869F8001879F100D16
:1019C000969F100D1124C8010E94F40CEC010097A1
:1019D00029F0A80160E070E00E941B0ECE01DF91AB
:1019E000CF911F910F910895CF93DF93823091058E
:1019F00010F482E090E0E0912503F091260320E0CE
:101A000030E0A0E0B0E0309739F1408151814817D3
:101A10005907B8F04817590771F4828193811097DC
:101A200029F013969C938E9312972CC090932603C3
:101A30008093250327C02115310531F04217530744
:101A400018F0A901DB0101C0EF019A01BD01DF011E
:101A50000280F381E02DD7CF21153105F9F0281B45
:101A6000390B2430310580F48A819B816115710521
:101A700021F0FB019383828304C09093260380931B
:101A80002503FE01329644C0FE01E20FF31F81934D
:101A9000919322503109398328833AC0209123033E
:101AA00030912403232B41F4209102013091030152
:101AB00030932403209323032091000130910101EE
:101AC0002115310541F42DB73EB7409104015091E5
:101AD0000501241B350BE0912303F0912403E21749
:101AE000F307A0F42E1B3F0B2817390778F0AC0141
:101AF0004E5F5F4F2417350748F04E0F5F1F50931E
:101B00002403409323038193919302C0E0E0F0E02B
:101B1000CF01DF91CF910895CF93DF93009709F420
:101B200087C0FC01329713821282C0912503D091A5
:101B30002603209781F420813181280F391F80915D
:101B40002303909124038217930779F5F0932403DC
:101B5000E09323036DC0DE0120E030E0AE17BF0745
:101B600050F412964D915C9113979D0141155105CA
:101B700009F1DA01F3CFB383A28340815181840F4D
:101B8000951F8A179B0771F48D919C911197840F73
:101B9000951F02969183808312968D919C91139745
:101BA000938382832115310529F4F0932603E09372
:101BB00025033EC0D9011396FC93EE9312974D91E5
:101BC0005D91A40FB51FEA17FB0779F4808191811D
:101BD000840F951F0296D90111969C938E93828152
:101BE000938113969C938E931297E0E0F0E08A81A4
:101BF0009B81009719F0FE01EC01F9CFCE0102960E
:101C000028813981820F931F20912303309124036F
:101C10002817390769F4309729F410922603109297
:101C2000250302C013821282D0932403C09323039E
:101C3000DF91CF910895DC0101C06D934150504078
:081C4000E0F70895F894FFCFCE
:101C480000002703200053797374656D2074696D53
:101C580065202873293A2000496E74657272757080
:101C680074732F7365636F6E643A20004E756D62EE
:101C78006572206F6620546872656164733A20004B
:101C88005468726561642069643A202020200054F9
:101C980068726561642050433A2020202000537404
:101CA80061636B2075736167653A20200053746126
:101CB800636B2073697A653A20202000546F702086
:101CC8006F6620737461636B3A2000537461636BB1
:101CD80020626173653A20202000537461636B2091
:101CE800656E643A20202020005363686564206391
:101CF8006F756E743A202000504320696E746572C7
:101D0800727570743A200050726F64756374696FED
:101D18006E207261746520286D7320706572206969
:101D280074656D293A2000436F6E73756D70746920
:101D38006F6E207261746520286D73207065722043
:081D48006974656D293A200061
:00000001FF
